{
  "_format": "hh-sol-artifact-1",
  "contractName": "BorrowSystemInsecureOracle",
  "sourceName": "contracts/Challenge3.borrow_system.sol",
  "abi": [
    {
      "inputs": [
        {
          "internalType": "address",
          "name": "_oracleToken",
          "type": "address"
        },
        {
          "internalType": "address",
          "name": "_tokenInsecureum",
          "type": "address"
        },
        {
          "internalType": "address",
          "name": "_tokenBoring",
          "type": "address"
        }
      ],
      "stateMutability": "nonpayable",
      "type": "constructor"
    },
    {
      "inputs": [
        {
          "internalType": "uint256",
          "name": "amount",
          "type": "uint256"
        }
      ],
      "name": "borrowToken0",
      "outputs": [],
      "stateMutability": "nonpayable",
      "type": "function"
    },
    {
      "inputs": [
        {
          "internalType": "uint256",
          "name": "amount",
          "type": "uint256"
        }
      ],
      "name": "borrowToken1",
      "outputs": [],
      "stateMutability": "nonpayable",
      "type": "function"
    },
    {
      "inputs": [
        {
          "internalType": "uint256",
          "name": "amount",
          "type": "uint256"
        }
      ],
      "name": "depositToken0",
      "outputs": [],
      "stateMutability": "nonpayable",
      "type": "function"
    },
    {
      "inputs": [
        {
          "internalType": "uint256",
          "name": "amount",
          "type": "uint256"
        }
      ],
      "name": "depositToken1",
      "outputs": [],
      "stateMutability": "nonpayable",
      "type": "function"
    },
    {
      "inputs": [
        {
          "internalType": "address",
          "name": "user",
          "type": "address"
        }
      ],
      "name": "isSolvent",
      "outputs": [
        {
          "internalType": "bool",
          "name": "",
          "type": "bool"
        }
      ],
      "stateMutability": "view",
      "type": "function"
    },
    {
      "inputs": [
        {
          "internalType": "address",
          "name": "user",
          "type": "address"
        }
      ],
      "name": "liquidate",
      "outputs": [],
      "stateMutability": "nonpayable",
      "type": "function"
    },
    {
      "inputs": [],
      "name": "token0",
      "outputs": [
        {
          "internalType": "contract IERC20",
          "name": "",
          "type": "address"
        }
      ],
      "stateMutability": "view",
      "type": "function"
    },
    {
      "inputs": [],
      "name": "token1",
      "outputs": [
        {
          "internalType": "contract IERC20",
          "name": "",
          "type": "address"
        }
      ],
      "stateMutability": "view",
      "type": "function"
    },
    {
      "inputs": [
        {
          "internalType": "uint256",
          "name": "_amount",
          "type": "uint256"
        }
      ],
      "name": "tokenPrice",
      "outputs": [
        {
          "internalType": "uint256",
          "name": "",
          "type": "uint256"
        }
      ],
      "stateMutability": "view",
      "type": "function"
    }
  ],
  "bytecode": "0x60e06040523480156200001157600080fd5b506040516200188b3803806200188b833981810160405281019062000037919062000146565b8273ffffffffffffffffffffffffffffffffffffffff1660808173ffffffffffffffffffffffffffffffffffffffff16815250508173ffffffffffffffffffffffffffffffffffffffff1660a08173ffffffffffffffffffffffffffffffffffffffff16815250508073ffffffffffffffffffffffffffffffffffffffff1660c08173ffffffffffffffffffffffffffffffffffffffff1681525050505050620001a2565b600080fd5b600073ffffffffffffffffffffffffffffffffffffffff82169050919050565b60006200010e82620000e1565b9050919050565b620001208162000101565b81146200012c57600080fd5b50565b600081519050620001408162000115565b92915050565b600080600060608486031215620001625762000161620000dc565b5b600062000172868287016200012f565b935050602062000185868287016200012f565b925050604062000198868287016200012f565b9150509250925092565b60805160a05160c05161167a62000211600039600081816105900152818161062701528181610809015281816109f101528181610a3a0152610a9c0152600081816101c20152818161028901528181610543015281816105dc01526108af01526000610a60015261167a6000f3fe608060405234801561001057600080fd5b50600436106100935760003560e01c806371210a0d1161006657806371210a0d1461011e578063971e3c431461013a578063bdb286a914610156578063d21220a714610172578063d4ddce8a1461019057610093565b80630dfe1681146100985780630f5c6fdd146100b65780632f865568146100d257806338b51ce1146100ee575b600080fd5b6100a06101c0565b6040516100ad9190610f2c565b60405180910390f35b6100d060048036038101906100cb9190610f82565b6101e4565b005b6100ec60048036038101906100e79190610fed565b6102d0565b005b61010860048036038101906101039190610fed565b610672565b6040516101159190611035565b60405180910390f35b61013860048036038101906101339190610f82565b610801565b005b610154600480360381019061014f9190610f82565b6108a7565b005b610170600480360381019061016b9190610f82565b61094c565b005b61017a610a38565b6040516101879190610f2c565b60405180910390f35b6101aa60048036038101906101a59190610f82565b610a5c565b6040516101b7919061105f565b60405180910390f35b7f000000000000000000000000000000000000000000000000000000000000000081565b80600160003373ffffffffffffffffffffffffffffffffffffffff1673ffffffffffffffffffffffffffffffffffffffff168152602001908152602001600020600082825461023391906110a9565b9250508190555061024333610672565b610282576040517f08c379a00000000000000000000000000000000000000000000000000000000081526004016102799061115c565b60405180910390fd5b6102cd33827f000000000000000000000000000000000000000000000000000000000000000073ffffffffffffffffffffffffffffffffffffffff16610b219092919063ffffffff16565b50565b6102d981610672565b15610319576040517f08c379a0000000000000000000000000000000000000000000000000000000008152600401610310906111c8565b60405180910390fd5b6000600160008373ffffffffffffffffffffffffffffffffffffffff1673ffffffffffffffffffffffffffffffffffffffff1681526020019081526020016000205490506000600360008473ffffffffffffffffffffffffffffffffffffffff1673ffffffffffffffffffffffffffffffffffffffff16815260200190815260200160002054905060008060008573ffffffffffffffffffffffffffffffffffffffff1673ffffffffffffffffffffffffffffffffffffffff1681526020019081526020016000205490506000600260008673ffffffffffffffffffffffffffffffffffffffff1673ffffffffffffffffffffffffffffffffffffffff1681526020019081526020016000205490506000600160008773ffffffffffffffffffffffffffffffffffffffff1673ffffffffffffffffffffffffffffffffffffffff168152602001908152602001600020819055506000600360008773ffffffffffffffffffffffffffffffffffffffff1673ffffffffffffffffffffffffffffffffffffffff1681526020019081526020016000208190555060008060008773ffffffffffffffffffffffffffffffffffffffff1673ffffffffffffffffffffffffffffffffffffffff168152602001908152602001600020819055506000600260008773ffffffffffffffffffffffffffffffffffffffff1673ffffffffffffffffffffffffffffffffffffffff168152602001908152602001600020819055506105883330867f000000000000000000000000000000000000000000000000000000000000000073ffffffffffffffffffffffffffffffffffffffff16610ba7909392919063ffffffff16565b6105d53330857f000000000000000000000000000000000000000000000000000000000000000073ffffffffffffffffffffffffffffffffffffffff16610ba7909392919063ffffffff16565b61062033837f000000000000000000000000000000000000000000000000000000000000000073ffffffffffffffffffffffffffffffffffffffff16610b219092919063ffffffff16565b61066b33827f000000000000000000000000000000000000000000000000000000000000000073ffffffffffffffffffffffffffffffffffffffff16610b219092919063ffffffff16565b5050505050565b600080670de0b6b3a76400009050600061068b82610a5c565b905060008282600260008873ffffffffffffffffffffffffffffffffffffffff1673ffffffffffffffffffffffffffffffffffffffff168152602001908152602001600020546106db91906111e8565b6106e59190611271565b6000808773ffffffffffffffffffffffffffffffffffffffff1673ffffffffffffffffffffffffffffffffffffffff1681526020019081526020016000205461072e91906110a9565b90506000605a60648361074191906111e8565b61074b9190611271565b905060008484600360008a73ffffffffffffffffffffffffffffffffffffffff1673ffffffffffffffffffffffffffffffffffffffff1681526020019081526020016000205461079b91906111e8565b6107a59190611271565b600160008973ffffffffffffffffffffffffffffffffffffffff1673ffffffffffffffffffffffffffffffffffffffff168152602001908152602001600020546107ef91906110a9565b90508082101595505050505050919050565b61084e3330837f000000000000000000000000000000000000000000000000000000000000000073ffffffffffffffffffffffffffffffffffffffff16610ba7909392919063ffffffff16565b80600260003373ffffffffffffffffffffffffffffffffffffffff1673ffffffffffffffffffffffffffffffffffffffff168152602001908152602001600020600082825461089d91906110a9565b9250508190555050565b6108f43330837f000000000000000000000000000000000000000000000000000000000000000073ffffffffffffffffffffffffffffffffffffffff16610ba7909392919063ffffffff16565b806000803373ffffffffffffffffffffffffffffffffffffffff1673ffffffffffffffffffffffffffffffffffffffff168152602001908152602001600020600082825461094291906110a9565b9250508190555050565b80600360003373ffffffffffffffffffffffffffffffffffffffff1673ffffffffffffffffffffffffffffffffffffffff168152602001908152602001600020600082825461099b91906110a9565b925050819055506109ab33610672565b6109ea576040517f08c379a00000000000000000000000000000000000000000000000000000000081526004016109e19061115c565b60405180910390fd5b610a3533827f000000000000000000000000000000000000000000000000000000000000000073ffffffffffffffffffffffffffffffffffffffff16610b219092919063ffffffff16565b50565b7f000000000000000000000000000000000000000000000000000000000000000081565b60007f000000000000000000000000000000000000000000000000000000000000000073ffffffffffffffffffffffffffffffffffffffff166334a85ae87f0000000000000000000000000000000000000000000000000000000000000000846040518363ffffffff1660e01b8152600401610ad99291906112b1565b602060405180830381865afa158015610af6573d6000803e3d6000fd5b505050506040513d601f19601f82011682018060405250810190610b1a91906112ef565b9050919050565b610ba28363a9059cbb60e01b8484604051602401610b409291906112b1565b604051602081830303815290604052907bffffffffffffffffffffffffffffffffffffffffffffffffffffffff19166020820180517bffffffffffffffffffffffffffffffffffffffffffffffffffffffff8381831617835250505050610c30565b505050565b610c2a846323b872dd60e01b858585604051602401610bc89392919061131c565b604051602081830303815290604052907bffffffffffffffffffffffffffffffffffffffffffffffffffffffff19166020820180517bffffffffffffffffffffffffffffffffffffffffffffffffffffffff8381831617835250505050610c30565b50505050565b6000610c92826040518060400160405280602081526020017f5361666545524332303a206c6f772d6c6576656c2063616c6c206661696c65648152508573ffffffffffffffffffffffffffffffffffffffff16610cf79092919063ffffffff16565b9050600081511115610cf25780806020019051810190610cb2919061137f565b610cf1576040517f08c379a0000000000000000000000000000000000000000000000000000000008152600401610ce89061141e565b60405180910390fd5b5b505050565b6060610d068484600085610d0f565b90509392505050565b606082471015610d54576040517f08c379a0000000000000000000000000000000000000000000000000000000008152600401610d4b906114b0565b60405180910390fd5b610d5d85610e23565b610d9c576040517f08c379a0000000000000000000000000000000000000000000000000000000008152600401610d939061151c565b60405180910390fd5b6000808673ffffffffffffffffffffffffffffffffffffffff168587604051610dc591906115b6565b60006040518083038185875af1925050503d8060008114610e02576040519150601f19603f3d011682016040523d82523d6000602084013e610e07565b606091505b5091509150610e17828286610e46565b92505050949350505050565b6000808273ffffffffffffffffffffffffffffffffffffffff163b119050919050565b60608315610e5657829050610ea6565b600083511115610e695782518084602001fd5b816040517f08c379a0000000000000000000000000000000000000000000000000000000008152600401610e9d9190611622565b60405180910390fd5b9392505050565b600073ffffffffffffffffffffffffffffffffffffffff82169050919050565b6000819050919050565b6000610ef2610eed610ee884610ead565b610ecd565b610ead565b9050919050565b6000610f0482610ed7565b9050919050565b6000610f1682610ef9565b9050919050565b610f2681610f0b565b82525050565b6000602082019050610f416000830184610f1d565b92915050565b600080fd5b6000819050919050565b610f5f81610f4c565b8114610f6a57600080fd5b50565b600081359050610f7c81610f56565b92915050565b600060208284031215610f9857610f97610f47565b5b6000610fa684828501610f6d565b91505092915050565b6000610fba82610ead565b9050919050565b610fca81610faf565b8114610fd557600080fd5b50565b600081359050610fe781610fc1565b92915050565b60006020828403121561100357611002610f47565b5b600061101184828501610fd8565b91505092915050565b60008115159050919050565b61102f8161101a565b82525050565b600060208201905061104a6000830184611026565b92915050565b61105981610f4c565b82525050565b60006020820190506110746000830184611050565b92915050565b7f4e487b7100000000000000000000000000000000000000000000000000000000600052601160045260246000fd5b60006110b482610f4c565b91506110bf83610f4c565b9250827fffffffffffffffffffffffffffffffffffffffffffffffffffffffffffffffff038211156110f4576110f361107a565b5b828201905092915050565b600082825260208201905092915050565b7f55736572206973206e6f7420736f6c76656e7400000000000000000000000000600082015250565b60006111466013836110ff565b915061115182611110565b602082019050919050565b6000602082019050818103600083015261117581611139565b9050919050565b7f55736572206973206e6f7420736f6c76656e7421000000000000000000000000600082015250565b60006111b26014836110ff565b91506111bd8261117c565b602082019050919050565b600060208201905081810360008301526111e1816111a5565b9050919050565b60006111f382610f4c565b91506111fe83610f4c565b9250817fffffffffffffffffffffffffffffffffffffffffffffffffffffffffffffffff04831182151516156112375761123661107a565b5b828202905092915050565b7f4e487b7100000000000000000000000000000000000000000000000000000000600052601260045260246000fd5b600061127c82610f4c565b915061128783610f4c565b92508261129757611296611242565b5b828204905092915050565b6112ab81610faf565b82525050565b60006040820190506112c660008301856112a2565b6112d36020830184611050565b9392505050565b6000815190506112e981610f56565b92915050565b60006020828403121561130557611304610f47565b5b6000611313848285016112da565b91505092915050565b600060608201905061133160008301866112a2565b61133e60208301856112a2565b61134b6040830184611050565b949350505050565b61135c8161101a565b811461136757600080fd5b50565b60008151905061137981611353565b92915050565b60006020828403121561139557611394610f47565b5b60006113a38482850161136a565b91505092915050565b7f5361666545524332303a204552433230206f7065726174696f6e20646964206e60008201527f6f74207375636365656400000000000000000000000000000000000000000000602082015250565b6000611408602a836110ff565b9150611413826113ac565b604082019050919050565b60006020820190508181036000830152611437816113fb565b9050919050565b7f416464726573733a20696e73756666696369656e742062616c616e636520666f60008201527f722063616c6c0000000000000000000000000000000000000000000000000000602082015250565b600061149a6026836110ff565b91506114a58261143e565b604082019050919050565b600060208201905081810360008301526114c98161148d565b9050919050565b7f416464726573733a2063616c6c20746f206e6f6e2d636f6e7472616374000000600082015250565b6000611506601d836110ff565b9150611511826114d0565b602082019050919050565b60006020820190508181036000830152611535816114f9565b9050919050565b600081519050919050565b600081905092915050565b60005b83811015611570578082015181840152602081019050611555565b8381111561157f576000848401525b50505050565b60006115908261153c565b61159a8185611547565b93506115aa818560208601611552565b80840191505092915050565b60006115c28284611585565b915081905092915050565b600081519050919050565b6000601f19601f8301169050919050565b60006115f4826115cd565b6115fe81856110ff565b935061160e818560208601611552565b611617816115d8565b840191505092915050565b6000602082019050818103600083015261163c81846115e9565b90509291505056fea2646970667358221220b4b93886aa51e182def4d302f986923d07232f50c8b46c8ea5b6f24a767dcbe164736f6c634300080e0033",
  "linkReferences": {},
  "deployedLinkReferences": {}
}