{
  "_format": "hh-sol-artifact-1",
  "contractName": "InsecureDexLP",
  "sourceName": "contracts/Challenge2.DEX.sol",
  "abi": [
    {
      "inputs": [
        {
          "internalType": "address",
          "name": "token0Address",
          "type": "address"
        },
        {
          "internalType": "address",
          "name": "token1Address",
          "type": "address"
        }
      ],
      "stateMutability": "nonpayable",
      "type": "constructor"
    },
    {
      "inputs": [
        {
          "internalType": "uint256",
          "name": "amount0",
          "type": "uint256"
        },
        {
          "internalType": "uint256",
          "name": "amount1",
          "type": "uint256"
        }
      ],
      "name": "addLiquidity",
      "outputs": [],
      "stateMutability": "nonpayable",
      "type": "function"
    },
    {
      "inputs": [
        {
          "internalType": "address",
          "name": "user",
          "type": "address"
        }
      ],
      "name": "balanceOf",
      "outputs": [
        {
          "internalType": "uint256",
          "name": "",
          "type": "uint256"
        }
      ],
      "stateMutability": "view",
      "type": "function"
    },
    {
      "inputs": [
        {
          "internalType": "address",
          "name": "tokenIn",
          "type": "address"
        },
        {
          "internalType": "uint256",
          "name": "amountIn",
          "type": "uint256"
        }
      ],
      "name": "calcAmountsOut",
      "outputs": [
        {
          "internalType": "uint256",
          "name": "output",
          "type": "uint256"
        }
      ],
      "stateMutability": "view",
      "type": "function"
    },
    {
      "inputs": [
        {
          "internalType": "uint256",
          "name": "amount",
          "type": "uint256"
        }
      ],
      "name": "removeLiquidity",
      "outputs": [
        {
          "internalType": "uint256",
          "name": "amount0",
          "type": "uint256"
        },
        {
          "internalType": "uint256",
          "name": "amount1",
          "type": "uint256"
        }
      ],
      "stateMutability": "nonpayable",
      "type": "function"
    },
    {
      "inputs": [],
      "name": "reserve0",
      "outputs": [
        {
          "internalType": "uint256",
          "name": "",
          "type": "uint256"
        }
      ],
      "stateMutability": "view",
      "type": "function"
    },
    {
      "inputs": [],
      "name": "reserve1",
      "outputs": [
        {
          "internalType": "uint256",
          "name": "",
          "type": "uint256"
        }
      ],
      "stateMutability": "view",
      "type": "function"
    },
    {
      "inputs": [
        {
          "internalType": "address",
          "name": "tokenFrom",
          "type": "address"
        },
        {
          "internalType": "address",
          "name": "tokenTo",
          "type": "address"
        },
        {
          "internalType": "uint256",
          "name": "amountIn",
          "type": "uint256"
        }
      ],
      "name": "swap",
      "outputs": [
        {
          "internalType": "uint256",
          "name": "amountOut",
          "type": "uint256"
        }
      ],
      "stateMutability": "nonpayable",
      "type": "function"
    },
    {
      "inputs": [],
      "name": "token0",
      "outputs": [
        {
          "internalType": "contract IERC20",
          "name": "",
          "type": "address"
        }
      ],
      "stateMutability": "view",
      "type": "function"
    },
    {
      "inputs": [],
      "name": "token1",
      "outputs": [
        {
          "internalType": "contract IERC20",
          "name": "",
          "type": "address"
        }
      ],
      "stateMutability": "view",
      "type": "function"
    },
    {
      "inputs": [
        {
          "internalType": "address",
          "name": "",
          "type": "address"
        },
        {
          "internalType": "uint256",
          "name": "",
          "type": "uint256"
        },
        {
          "internalType": "bytes",
          "name": "",
          "type": "bytes"
        }
      ],
      "name": "tokenFallback",
      "outputs": [],
      "stateMutability": "nonpayable",
      "type": "function"
    },
    {
      "inputs": [],
      "name": "totalSupply",
      "outputs": [
        {
          "internalType": "uint256",
          "name": "",
          "type": "uint256"
        }
      ],
      "stateMutability": "view",
      "type": "function"
    }
  ],
  "bytecode": "0x60c06040523480156200001157600080fd5b5060405162001f0738038062001f07833981810160405281019062000037919062000111565b8173ffffffffffffffffffffffffffffffffffffffff1660808173ffffffffffffffffffffffffffffffffffffffff16815250508073ffffffffffffffffffffffffffffffffffffffff1660a08173ffffffffffffffffffffffffffffffffffffffff1681525050505062000158565b600080fd5b600073ffffffffffffffffffffffffffffffffffffffff82169050919050565b6000620000d982620000ac565b9050919050565b620000eb81620000cc565b8114620000f757600080fd5b50565b6000815190506200010b81620000e0565b92915050565b600080604083850312156200012b576200012a620000a7565b5b60006200013b85828601620000fa565b92505060206200014e85828601620000fa565b9150509250929050565b60805160a051611d12620001f5600039600081816102d4015281816104f4015281816105f9015281816107170152818161079201528181610876015281816109bb01528181610a1d0152610c3b01526000818161023f0152818161026b015281816104a9015281816105ac0152818161073d01528181610821015281816109050152818161096f01528181610a690152610b9b0152611d126000f3fe608060405234801561001057600080fd5b50600436106100a95760003560e01c806370a082311161007157806370a08231146101565780639c8f9f23146101865780639cd441da146101b7578063c0ee0b8a146101d3578063d21220a7146101ef578063df791e501461020d576100a9565b80630dfe1681146100ae57806318160ddd146100cc57806334a85ae8146100ea578063443cb4bc1461011a5780635a76f25e14610138575b600080fd5b6100b661023d565b6040516100c39190611226565b60405180910390f35b6100d4610261565b6040516100e1919061125a565b60405180910390f35b61010460048036038101906100ff91906112f3565b610267565b604051610111919061125a565b60405180910390f35b61012261037d565b60405161012f919061125a565b60405180910390f35b610140610383565b60405161014d919061125a565b60405180910390f35b610170600480360381019061016b9190611333565b610389565b60405161017d919061125a565b60405180910390f35b6101a0600480360381019061019b9190611360565b6103d2565b6040516101ae92919061138d565b60405180910390f35b6101d160048036038101906101cc91906113b6565b6105a2565b005b6101ed60048036038101906101e8919061153c565b610710565b005b6101f7610715565b6040516102049190611226565b60405180910390f35b610227600480360381019061022291906115ab565b610739565b604051610234919061125a565b60405180910390f35b7f000000000000000000000000000000000000000000000000000000000000000081565b60025481565b60007f000000000000000000000000000000000000000000000000000000000000000073ffffffffffffffffffffffffffffffffffffffff168373ffffffffffffffffffffffffffffffffffffffff16036102d2576102cb82600054600154610abd565b9050610377565b7f000000000000000000000000000000000000000000000000000000000000000073ffffffffffffffffffffffffffffffffffffffff168373ffffffffffffffffffffffffffffffffffffffff160361033b5761033482600154600054610abd565b9050610376565b6040517f08c379a000000000000000000000000000000000000000000000000000000000815260040161036d9061165b565b60405180910390fd5b5b92915050565b60005481565b60015481565b6000600360008373ffffffffffffffffffffffffffffffffffffffff1673ffffffffffffffffffffffffffffffffffffffff168152602001908152602001600020549050919050565b60008082600360003373ffffffffffffffffffffffffffffffffffffffff1673ffffffffffffffffffffffffffffffffffffffff16815260200190815260200160002054101561042157600080fd5b6002546000548402816104375761043661167b565b5b0491506002546001548402816104505761044f61167b565b5b0490506000821180156104635750600081115b6104a2576040517f08c379a00000000000000000000000000000000000000000000000000000000081526004016104999061171c565b60405180910390fd5b6104ed33837f000000000000000000000000000000000000000000000000000000000000000073ffffffffffffffffffffffffffffffffffffffff16610b139092919063ffffffff16565b61053833827f000000000000000000000000000000000000000000000000000000000000000073ffffffffffffffffffffffffffffffffffffffff16610b139092919063ffffffff16565b82600360003373ffffffffffffffffffffffffffffffffffffffff1673ffffffffffffffffffffffffffffffffffffffff168152602001908152602001600020600082825403925050819055508260026000828254039250508190555061059d610b99565b915091565b60006105f13330857f000000000000000000000000000000000000000000000000000000000000000073ffffffffffffffffffffffffffffffffffffffff16610cdb909392919063ffffffff16565b61063e3330847f000000000000000000000000000000000000000000000000000000000000000073ffffffffffffffffffffffffffffffffffffffff16610cdb909392919063ffffffff16565b600060025490506000810361066857610661838561065c919061176b565b610d64565b91506106a5565b6106a2600054828661067a919061176b565b61068491906117c5565b6001548386610693919061176b565b61069d91906117c5565b610f11565b91505b6106ad610b99565b8160026000828254019250508190555081600360003373ffffffffffffffffffffffffffffffffffffffff1673ffffffffffffffffffffffffffffffffffffffff1681526020019081526020016000206000828254019250508190555050505050565b505050565b7f000000000000000000000000000000000000000000000000000000000000000081565b60007f000000000000000000000000000000000000000000000000000000000000000073ffffffffffffffffffffffffffffffffffffffff168473ffffffffffffffffffffffffffffffffffffffff1614806107e057507f000000000000000000000000000000000000000000000000000000000000000073ffffffffffffffffffffffffffffffffffffffff168473ffffffffffffffffffffffffffffffffffffffff16145b61081f576040517f08c379a000000000000000000000000000000000000000000000000000000000815260040161081690611842565b60405180910390fd5b7f000000000000000000000000000000000000000000000000000000000000000073ffffffffffffffffffffffffffffffffffffffff168373ffffffffffffffffffffffffffffffffffffffff1614806108c457507f000000000000000000000000000000000000000000000000000000000000000073ffffffffffffffffffffffffffffffffffffffff168373ffffffffffffffffffffffffffffffffffffffff16145b610903576040517f08c379a00000000000000000000000000000000000000000000000000000000081526004016108fa906118ae565b60405180910390fd5b7f000000000000000000000000000000000000000000000000000000000000000073ffffffffffffffffffffffffffffffffffffffff168473ffffffffffffffffffffffffffffffffffffffff1603610a045761096582600054600154610abd565b90506109b43330847f000000000000000000000000000000000000000000000000000000000000000073ffffffffffffffffffffffffffffffffffffffff16610cdb909392919063ffffffff16565b6109ff33827f000000000000000000000000000000000000000000000000000000000000000073ffffffffffffffffffffffffffffffffffffffff16610b139092919063ffffffff16565b610aae565b610a1382600154600054610abd565b9050610a623330847f000000000000000000000000000000000000000000000000000000000000000073ffffffffffffffffffffffffffffffffffffffff16610cdb909392919063ffffffff16565b610aad33827f000000000000000000000000000000000000000000000000000000000000000073ffffffffffffffffffffffffffffffffffffffff16610b139092919063ffffffff16565b5b610ab6610b99565b9392505050565b60006103e884610acd919061176b565b935060008285610add919061176b565b90506000856103e886610af0919061176b565b610afa91906118ce565b90508082610b0891906117c5565b925050509392505050565b610b948363a9059cbb60e01b8484604051602401610b32929190611933565b604051602081830303815290604052907bffffffffffffffffffffffffffffffffffffffffffffffffffffffff19166020820180517bffffffffffffffffffffffffffffffffffffffffffffffffffffffff8381831617835250505050610f2a565b505050565b7f000000000000000000000000000000000000000000000000000000000000000073ffffffffffffffffffffffffffffffffffffffff166370a08231306040518263ffffffff1660e01b8152600401610bf2919061195c565b602060405180830381865afa158015610c0f573d6000803e3d6000fd5b505050506040513d601f19601f82011682018060405250810190610c33919061198c565b6000819055507f000000000000000000000000000000000000000000000000000000000000000073ffffffffffffffffffffffffffffffffffffffff166370a08231306040518263ffffffff1660e01b8152600401610c92919061195c565b602060405180830381865afa158015610caf573d6000803e3d6000fd5b505050506040513d601f19601f82011682018060405250810190610cd3919061198c565b600181905550565b610d5e846323b872dd60e01b858585604051602401610cfc939291906119b9565b604051602081830303815290604052907bffffffffffffffffffffffffffffffffffffffffffffffffffffffff19166020820180517bffffffffffffffffffffffffffffffffffffffffffffffffffffffff8381831617835250505050610f2a565b50505050565b6000808203610d765760009050610f0c565b60006001905060008390506000608082901c1115610d9d57608081901c9050604082901b91505b6000604082901c1115610db957604081901c9050602082901b91505b6000602082901c1115610dd557602081901c9050601082901b91505b6000601082901c1115610df157601081901c9050600882901b91505b6000600882901c1115610e0d57600881901c9050600482901b91505b6000600482901c1115610e2957600481901c9050600282901b91505b6000600282901c1115610e3e57600182901b91505b6001828581610e5057610e4f61167b565b5b048301901c91506001828581610e6957610e6861167b565b5b048301901c91506001828581610e8257610e8161167b565b5b048301901c91506001828581610e9b57610e9a61167b565b5b048301901c91506001828581610eb457610eb361167b565b5b048301901c91506001828581610ecd57610ecc61167b565b5b048301901c91506001828581610ee657610ee561167b565b5b048301901c9150610f0782838681610f0157610f0061167b565b5b04610f11565b925050505b919050565b6000818310610f205781610f22565b825b905092915050565b6000610f8c826040518060400160405280602081526020017f5361666545524332303a206c6f772d6c6576656c2063616c6c206661696c65648152508573ffffffffffffffffffffffffffffffffffffffff16610ff19092919063ffffffff16565b9050600081511115610fec5780806020019051810190610fac9190611a28565b610feb576040517f08c379a0000000000000000000000000000000000000000000000000000000008152600401610fe290611ac7565b60405180910390fd5b5b505050565b60606110008484600085611009565b90509392505050565b60608247101561104e576040517f08c379a000000000000000000000000000000000000000000000000000000000815260040161104590611b59565b60405180910390fd5b6110578561111d565b611096576040517f08c379a000000000000000000000000000000000000000000000000000000000815260040161108d90611bc5565b60405180910390fd5b6000808673ffffffffffffffffffffffffffffffffffffffff1685876040516110bf9190611c5f565b60006040518083038185875af1925050503d80600081146110fc576040519150601f19603f3d011682016040523d82523d6000602084013e611101565b606091505b5091509150611111828286611140565b92505050949350505050565b6000808273ffffffffffffffffffffffffffffffffffffffff163b119050919050565b60608315611150578290506111a0565b6000835111156111635782518084602001fd5b816040517f08c379a00000000000000000000000000000000000000000000000000000000081526004016111979190611cba565b60405180910390fd5b9392505050565b600073ffffffffffffffffffffffffffffffffffffffff82169050919050565b6000819050919050565b60006111ec6111e76111e2846111a7565b6111c7565b6111a7565b9050919050565b60006111fe826111d1565b9050919050565b6000611210826111f3565b9050919050565b61122081611205565b82525050565b600060208201905061123b6000830184611217565b92915050565b6000819050919050565b61125481611241565b82525050565b600060208201905061126f600083018461124b565b92915050565b6000604051905090565b600080fd5b600080fd5b6000611294826111a7565b9050919050565b6112a481611289565b81146112af57600080fd5b50565b6000813590506112c18161129b565b92915050565b6112d081611241565b81146112db57600080fd5b50565b6000813590506112ed816112c7565b92915050565b6000806040838503121561130a5761130961127f565b5b6000611318858286016112b2565b9250506020611329858286016112de565b9150509250929050565b6000602082840312156113495761134861127f565b5b6000611357848285016112b2565b91505092915050565b6000602082840312156113765761137561127f565b5b6000611384848285016112de565b91505092915050565b60006040820190506113a2600083018561124b565b6113af602083018461124b565b9392505050565b600080604083850312156113cd576113cc61127f565b5b60006113db858286016112de565b92505060206113ec858286016112de565b9150509250929050565b600080fd5b600080fd5b6000601f19601f8301169050919050565b7f4e487b7100000000000000000000000000000000000000000000000000000000600052604160045260246000fd5b61144982611400565b810181811067ffffffffffffffff8211171561146857611467611411565b5b80604052505050565b600061147b611275565b90506114878282611440565b919050565b600067ffffffffffffffff8211156114a7576114a6611411565b5b6114b082611400565b9050602081019050919050565b82818337600083830152505050565b60006114df6114da8461148c565b611471565b9050828152602081018484840111156114fb576114fa6113fb565b5b6115068482856114bd565b509392505050565b600082601f830112611523576115226113f6565b5b81356115338482602086016114cc565b91505092915050565b6000806000606084860312156115555761155461127f565b5b6000611563868287016112b2565b9350506020611574868287016112de565b925050604084013567ffffffffffffffff81111561159557611594611284565b5b6115a18682870161150e565b9150509250925092565b6000806000606084860312156115c4576115c361127f565b5b60006115d2868287016112b2565b93505060206115e3868287016112b2565b92505060406115f4868287016112de565b9150509250925092565b600082825260208201905092915050565b7f546f6b656e206973206e6f7420737570706f7274656400000000000000000000600082015250565b60006116456016836115fe565b91506116508261160f565b602082019050919050565b6000602082019050818103600083015261167481611638565b9050919050565b7f4e487b7100000000000000000000000000000000000000000000000000000000600052601260045260246000fd5b7f496e7365637572654465784c503a20494e53554646494349454e545f4c49515560008201527f49444954595f4255524e45440000000000000000000000000000000000000000602082015250565b6000611706602c836115fe565b9150611711826116aa565b604082019050919050565b60006020820190508181036000830152611735816116f9565b9050919050565b7f4e487b7100000000000000000000000000000000000000000000000000000000600052601160045260246000fd5b600061177682611241565b915061178183611241565b9250817fffffffffffffffffffffffffffffffffffffffffffffffffffffffffffffffff04831182151516156117ba576117b961173c565b5b828202905092915050565b60006117d082611241565b91506117db83611241565b9250826117eb576117ea61167b565b5b828204905092915050565b7f746f6b656e46726f6d206973206e6f7420737570706f72746564000000000000600082015250565b600061182c601a836115fe565b9150611837826117f6565b602082019050919050565b6000602082019050818103600083015261185b8161181f565b9050919050565b7f746f6b656e546f206973206e6f7420737570706f727465640000000000000000600082015250565b60006118986018836115fe565b91506118a382611862565b602082019050919050565b600060208201905081810360008301526118c78161188b565b9050919050565b60006118d982611241565b91506118e483611241565b9250827fffffffffffffffffffffffffffffffffffffffffffffffffffffffffffffffff038211156119195761191861173c565b5b828201905092915050565b61192d81611289565b82525050565b60006040820190506119486000830185611924565b611955602083018461124b565b9392505050565b60006020820190506119716000830184611924565b92915050565b600081519050611986816112c7565b92915050565b6000602082840312156119a2576119a161127f565b5b60006119b084828501611977565b91505092915050565b60006060820190506119ce6000830186611924565b6119db6020830185611924565b6119e8604083018461124b565b949350505050565b60008115159050919050565b611a05816119f0565b8114611a1057600080fd5b50565b600081519050611a22816119fc565b92915050565b600060208284031215611a3e57611a3d61127f565b5b6000611a4c84828501611a13565b91505092915050565b7f5361666545524332303a204552433230206f7065726174696f6e20646964206e60008201527f6f74207375636365656400000000000000000000000000000000000000000000602082015250565b6000611ab1602a836115fe565b9150611abc82611a55565b604082019050919050565b60006020820190508181036000830152611ae081611aa4565b9050919050565b7f416464726573733a20696e73756666696369656e742062616c616e636520666f60008201527f722063616c6c0000000000000000000000000000000000000000000000000000602082015250565b6000611b436026836115fe565b9150611b4e82611ae7565b604082019050919050565b60006020820190508181036000830152611b7281611b36565b9050919050565b7f416464726573733a2063616c6c20746f206e6f6e2d636f6e7472616374000000600082015250565b6000611baf601d836115fe565b9150611bba82611b79565b602082019050919050565b60006020820190508181036000830152611bde81611ba2565b9050919050565b600081519050919050565b600081905092915050565b60005b83811015611c19578082015181840152602081019050611bfe565b83811115611c28576000848401525b50505050565b6000611c3982611be5565b611c438185611bf0565b9350611c53818560208601611bfb565b80840191505092915050565b6000611c6b8284611c2e565b915081905092915050565b600081519050919050565b6000611c8c82611c76565b611c9681856115fe565b9350611ca6818560208601611bfb565b611caf81611400565b840191505092915050565b60006020820190508181036000830152611cd48184611c81565b90509291505056fea2646970667358221220900a7f6b2b5c6fb6477bf82658bf4a78b064a2671ad12435e9cf6765be24a39f64736f6c634300080e0033",
  "linkReferences": {},
  "deployedLinkReferences": {}
}