{
  "_format": "hh-sol-artifact-1",
  "contractName": "InSecureumLenderPool",
  "sourceName": "contracts/Challenge1.lenderpool.sol",
  "abi": [
    {
      "inputs": [
        {
          "internalType": "address",
          "name": "_token",
          "type": "address"
        }
      ],
      "stateMutability": "nonpayable",
      "type": "constructor"
    },
    {
      "inputs": [
        {
          "internalType": "address",
          "name": "",
          "type": "address"
        }
      ],
      "name": "balances",
      "outputs": [
        {
          "internalType": "uint256",
          "name": "",
          "type": "uint256"
        }
      ],
      "stateMutability": "view",
      "type": "function"
    },
    {
      "inputs": [
        {
          "internalType": "uint256",
          "name": "_amount",
          "type": "uint256"
        }
      ],
      "name": "deposit",
      "outputs": [],
      "stateMutability": "nonpayable",
      "type": "function"
    },
    {
      "inputs": [
        {
          "internalType": "address",
          "name": "borrower",
          "type": "address"
        },
        {
          "internalType": "bytes",
          "name": "data",
          "type": "bytes"
        }
      ],
      "name": "flashLoan",
      "outputs": [],
      "stateMutability": "nonpayable",
      "type": "function"
    },
    {
      "inputs": [],
      "name": "token",
      "outputs": [
        {
          "internalType": "contract IERC20",
          "name": "",
          "type": "address"
        }
      ],
      "stateMutability": "view",
      "type": "function"
    },
    {
      "inputs": [
        {
          "internalType": "uint256",
          "name": "_amount",
          "type": "uint256"
        }
      ],
      "name": "withdraw",
      "outputs": [],
      "stateMutability": "nonpayable",
      "type": "function"
    }
  ],
  "bytecode": "0x60806040523480156200001157600080fd5b5060405162001473380380620014738339818101604052810190620000379190620000e8565b806000806101000a81548173ffffffffffffffffffffffffffffffffffffffff021916908373ffffffffffffffffffffffffffffffffffffffff160217905550506200011a565b600080fd5b600073ffffffffffffffffffffffffffffffffffffffff82169050919050565b6000620000b08262000083565b9050919050565b620000c281620000a3565b8114620000ce57600080fd5b50565b600081519050620000e281620000b7565b92915050565b6000602082840312156200010157620001006200007e565b5b60006200011184828501620000d1565b91505092915050565b611349806200012a6000396000f3fe608060405234801561001057600080fd5b50600436106100575760003560e01c806313001d891461005c57806327e235e3146100785780632e1a7d4d146100a8578063b6b55f25146100c4578063fc0c546a146100e0575b600080fd5b61007660048036038101906100719190610aa3565b6100fe565b005b610092600480360381019061008d9190610b03565b61032a565b60405161009f9190610b49565b60405180910390f35b6100c260048036038101906100bd9190610b90565b610342565b005b6100de60048036038101906100d99190610b90565b610436565b005b6100e861052c565b6040516100f59190610c1c565b60405180910390f35b60008060009054906101000a900473ffffffffffffffffffffffffffffffffffffffff1673ffffffffffffffffffffffffffffffffffffffff166370a08231306040518263ffffffff1660e01b815260040161015a9190610c46565b602060405180830381865afa158015610177573d6000803e3d6000fd5b505050506040513d601f19601f8201168201806040525081019061019b9190610c76565b90506001600260006101000a81548160ff02191690831515021790555061022583838080601f016020809104026020016040519081016040528093929190818152602001838380828437600081840152601f19601f820116905080830192505050505050508573ffffffffffffffffffffffffffffffffffffffff1661055090919063ffffffff16565b506000600260006101000a81548160ff02191690831515021790555060008060009054906101000a900473ffffffffffffffffffffffffffffffffffffffff1673ffffffffffffffffffffffffffffffffffffffff166370a08231306040518263ffffffff1660e01b815260040161029d9190610c46565b602060405180830381865afa1580156102ba573d6000803e3d6000fd5b505050506040513d601f19601f820116820180604052508101906102de9190610c76565b905081811015610323576040517f08c379a000000000000000000000000000000000000000000000000000000000815260040161031a90610d00565b60405180910390fd5b5050505050565b60016020528060005260406000206000915090505481565b600260009054906101000a900460ff1615610392576040517f08c379a000000000000000000000000000000000000000000000000000000000815260040161038990610d92565b60405180910390fd5b80600160003373ffffffffffffffffffffffffffffffffffffffff1673ffffffffffffffffffffffffffffffffffffffff16815260200190815260200160002060008282546103e19190610de1565b92505081905550610433338260008054906101000a900473ffffffffffffffffffffffffffffffffffffffff1673ffffffffffffffffffffffffffffffffffffffff1661057d9092919063ffffffff16565b50565b600260009054906101000a900460ff1615610486576040517f08c379a000000000000000000000000000000000000000000000000000000000815260040161047d90610e87565b60405180910390fd5b6104d333308360008054906101000a900473ffffffffffffffffffffffffffffffffffffffff1673ffffffffffffffffffffffffffffffffffffffff16610603909392919063ffffffff16565b80600160003373ffffffffffffffffffffffffffffffffffffffff1673ffffffffffffffffffffffffffffffffffffffff16815260200190815260200160002060008282546105229190610ea7565b9250508190555050565b60008054906101000a900473ffffffffffffffffffffffffffffffffffffffff1681565b606061057583836040518060600160405280602781526020016112ed6027913961068c565b905092915050565b6105fe8363a9059cbb60e01b848460405160240161059c929190610efd565b604051602081830303815290604052907bffffffffffffffffffffffffffffffffffffffffffffffffffffffff19166020820180517bffffffffffffffffffffffffffffffffffffffffffffffffffffffff8381831617835250505050610759565b505050565b610686846323b872dd60e01b85858560405160240161062493929190610f26565b604051602081830303815290604052907bffffffffffffffffffffffffffffffffffffffffffffffffffffffff19166020820180517bffffffffffffffffffffffffffffffffffffffffffffffffffffffff8381831617835250505050610759565b50505050565b606061069784610820565b6106d6576040517f08c379a00000000000000000000000000000000000000000000000000000000081526004016106cd90610fcf565b60405180910390fd5b6000808573ffffffffffffffffffffffffffffffffffffffff16856040516106fe9190611069565b600060405180830381855af49150503d8060008114610739576040519150601f19603f3d011682016040523d82523d6000602084013e61073e565b606091505b509150915061074e828286610843565b925050509392505050565b60006107bb826040518060400160405280602081526020017f5361666545524332303a206c6f772d6c6576656c2063616c6c206661696c65648152508573ffffffffffffffffffffffffffffffffffffffff166108aa9092919063ffffffff16565b905060008151111561081b57808060200190518101906107db91906110b8565b61081a576040517f08c379a000000000000000000000000000000000000000000000000000000000815260040161081190611157565b60405180910390fd5b5b505050565b6000808273ffffffffffffffffffffffffffffffffffffffff163b119050919050565b60608315610853578290506108a3565b6000835111156108665782518084602001fd5b816040517f08c379a000000000000000000000000000000000000000000000000000000000815260040161089a91906111cc565b60405180910390fd5b9392505050565b60606108b984846000856108c2565b90509392505050565b606082471015610907576040517f08c379a00000000000000000000000000000000000000000000000000000000081526004016108fe90611260565b60405180910390fd5b61091085610820565b61094f576040517f08c379a0000000000000000000000000000000000000000000000000000000008152600401610946906112cc565b60405180910390fd5b6000808673ffffffffffffffffffffffffffffffffffffffff1685876040516109789190611069565b60006040518083038185875af1925050503d80600081146109b5576040519150601f19603f3d011682016040523d82523d6000602084013e6109ba565b606091505b50915091506109ca828286610843565b92505050949350505050565b600080fd5b600080fd5b600073ffffffffffffffffffffffffffffffffffffffff82169050919050565b6000610a0b826109e0565b9050919050565b610a1b81610a00565b8114610a2657600080fd5b50565b600081359050610a3881610a12565b92915050565b600080fd5b600080fd5b600080fd5b60008083601f840112610a6357610a62610a3e565b5b8235905067ffffffffffffffff811115610a8057610a7f610a43565b5b602083019150836001820283011115610a9c57610a9b610a48565b5b9250929050565b600080600060408486031215610abc57610abb6109d6565b5b6000610aca86828701610a29565b935050602084013567ffffffffffffffff811115610aeb57610aea6109db565b5b610af786828701610a4d565b92509250509250925092565b600060208284031215610b1957610b186109d6565b5b6000610b2784828501610a29565b91505092915050565b6000819050919050565b610b4381610b30565b82525050565b6000602082019050610b5e6000830184610b3a565b92915050565b610b6d81610b30565b8114610b7857600080fd5b50565b600081359050610b8a81610b64565b92915050565b600060208284031215610ba657610ba56109d6565b5b6000610bb484828501610b7b565b91505092915050565b6000819050919050565b6000610be2610bdd610bd8846109e0565b610bbd565b6109e0565b9050919050565b6000610bf482610bc7565b9050919050565b6000610c0682610be9565b9050919050565b610c1681610bfb565b82525050565b6000602082019050610c316000830184610c0d565b92915050565b610c4081610a00565b82525050565b6000602082019050610c5b6000830184610c37565b92915050565b600081519050610c7081610b64565b92915050565b600060208284031215610c8c57610c8b6109d6565b5b6000610c9a84828501610c61565b91505092915050565b600082825260208201905092915050565b7f466c617368206c6f616e206861736e2774206265656e2070616964206261636b600082015250565b6000610cea602083610ca3565b9150610cf582610cb4565b602082019050919050565b60006020820190508181036000830152610d1981610cdd565b9050919050565b7f43616e6e6f74207769746864726177207768696c6520666c617368206c6f616e60008201527f2069732061637469766500000000000000000000000000000000000000000000602082015250565b6000610d7c602a83610ca3565b9150610d8782610d20565b604082019050919050565b60006020820190508181036000830152610dab81610d6f565b9050919050565b7f4e487b7100000000000000000000000000000000000000000000000000000000600052601160045260246000fd5b6000610dec82610b30565b9150610df783610b30565b925082821015610e0a57610e09610db2565b5b828203905092915050565b7f43616e6e6f74206465706f736974207768696c6520666c617368206c6f616e2060008201527f6973206163746976650000000000000000000000000000000000000000000000602082015250565b6000610e71602983610ca3565b9150610e7c82610e15565b604082019050919050565b60006020820190508181036000830152610ea081610e64565b9050919050565b6000610eb282610b30565b9150610ebd83610b30565b9250827fffffffffffffffffffffffffffffffffffffffffffffffffffffffffffffffff03821115610ef257610ef1610db2565b5b828201905092915050565b6000604082019050610f126000830185610c37565b610f1f6020830184610b3a565b9392505050565b6000606082019050610f3b6000830186610c37565b610f486020830185610c37565b610f556040830184610b3a565b949350505050565b7f416464726573733a2064656c65676174652063616c6c20746f206e6f6e2d636f60008201527f6e74726163740000000000000000000000000000000000000000000000000000602082015250565b6000610fb9602683610ca3565b9150610fc482610f5d565b604082019050919050565b60006020820190508181036000830152610fe881610fac565b9050919050565b600081519050919050565b600081905092915050565b60005b83811015611023578082015181840152602081019050611008565b83811115611032576000848401525b50505050565b600061104382610fef565b61104d8185610ffa565b935061105d818560208601611005565b80840191505092915050565b60006110758284611038565b915081905092915050565b60008115159050919050565b61109581611080565b81146110a057600080fd5b50565b6000815190506110b28161108c565b92915050565b6000602082840312156110ce576110cd6109d6565b5b60006110dc848285016110a3565b91505092915050565b7f5361666545524332303a204552433230206f7065726174696f6e20646964206e60008201527f6f74207375636365656400000000000000000000000000000000000000000000602082015250565b6000611141602a83610ca3565b915061114c826110e5565b604082019050919050565b6000602082019050818103600083015261117081611134565b9050919050565b600081519050919050565b6000601f19601f8301169050919050565b600061119e82611177565b6111a88185610ca3565b93506111b8818560208601611005565b6111c181611182565b840191505092915050565b600060208201905081810360008301526111e68184611193565b905092915050565b7f416464726573733a20696e73756666696369656e742062616c616e636520666f60008201527f722063616c6c0000000000000000000000000000000000000000000000000000602082015250565b600061124a602683610ca3565b9150611255826111ee565b604082019050919050565b600060208201905081810360008301526112798161123d565b9050919050565b7f416464726573733a2063616c6c20746f206e6f6e2d636f6e7472616374000000600082015250565b60006112b6601d83610ca3565b91506112c182611280565b602082019050919050565b600060208201905081810360008301526112e5816112a9565b905091905056fe416464726573733a206c6f772d6c6576656c2064656c65676174652063616c6c206661696c6564a26469706673582212201e86a27128e39ecead113ddefa924689650b180ab6147f7b64e15ebf2b70b6b164736f6c634300080e0033",
  "linkReferences": {},
  "deployedLinkReferences": {}
}